S01700004763634170706C69636174696F6E342E7372656358
S11300000C943E000C9448000C9448000C94480056
S11300100C9448000C9448000C9448000C9448003C
S11300200C9448000C9448000C9448000C9448002C
S11300300C9448000C9448000C9448000C9448001C
S11300400C9448000C9448000C9448000C9448000C
S11300500C9448000C9448000C9448000C944800FC
S11300600C9448000C9448000C9448000C944800EC
S11300700C9448000C9448000C94480011241FBEB2
S1130080CFEFD8E0DEBFCDBF0E9436020C943D0214
S11300900C94000060E082E40E949C0062E082E430
S11300A00E949C0062E082E40E94A00061E082E47D
S11300B00E9495000895CF93DF931F92CDB7DEB7CA
S11300C000E010E0E12CF12CDD24D39407C0E12CF6
S11300D0F12C04C000E010E0DD24D394AE014F5FA6
S11300E05F4F61E082E40E94990089818823B1F026
S11300F08FEFE81AF80A84EFE81681E0F80674F343
S1130100DD2029F360E082E40E94A40062E082E43E
S11301100E94A400E12CF12CD12CE0CF0F5F1F4FE3
S1130120043F81E01807B4F6D9CF40E00E94A7004D
S113013008950E94D201089541E00E94A700089505
S113014041E00E94210108950E949B010895823498
S113015031F118F4813439F008958334E1F18434B1
S113016009F454C0089541110CC02AB381E090E011
S113017002C0880F991F6A95E2F7809582238ABB93
S11301800895413009F05CC02AB381E090E002C0D8
S1130190880F991F6A95E2F7822B8ABB0895411153
S11301A00CC024B181E090E002C0880F991F6A95C9
S11301B0E2F78095822384B90895413009F040C064
S11301C024B181E090E002C0880F991F6A95E2F79C
S11301D0822B84B9089541110CC024B381E090E0CE
S11301E002C0880F991F6A95E2F78095822384BB29
S11301F00895413029F524B381E090E002C0880FCE
S1130200991F6A95E2F7822B84BB089541110CC0B3
S113021021B381E090E002C0880F991F6A95E2F74C
S11302208095822381BB0895413051F421B381E04C
S113023090E002C0880F991F6A95E2F7822B81BB78
S11302400895823431F118F4813439F008958334F7
S1130250E1F1843409F454C0089541110CC02BB366
S113026081E090E002C0880F991F6A95E2F78095BB
S113027082238BBB0895413009F05CC02BB381E02D
S113028090E002C0880F991F6A95E2F7822B8BBB1E
S1130290089541110CC025B181E090E002C0880F9F
S11302A0991F6A95E2F78095822385B908954130B4
S11302B009F040C025B181E090E002C0880F991F89
S11302C06A95E2F7822B85B9089541110CC025B3D4
S11302D081E090E002C0880F991F6A95E2F780954B
S11302E0822385BB0895413029F525B381E090E050
S11302F002C0880F991F6A95E2F7822B85BB089587
S113030041110CC022B381E090E002C0880F991F14
S11303106A95E2F78095822382BB0895413051F4B7
S113032022B381E090E002C0880F991F6A95E2F73A
S1130330822B82BB08958234A1F018F4813431F009
S113034008958334C9F0843411F108952BB381E006
S113035090E002C0880F991F6A95E2F782278BBB51
S1130360089525B181E090E002C0880F991F6A9535
S1130370E2F7822785B9089525B381E090E002C0B1
S1130380880F991F6A95E2F7822785BB089522B3E7
S113039081E090E002C0880F991F6A95E2F78227F6
S11303A082BB0895823401F118F4813439F0089540
S11303B0833481F1843409F443C0089579B381E02E
S11303C090E09C01062E02C0220F331F0A94E2F72C
S11303D0872F90E08223932302C0959587956A9591
S11303E0E2F7FA018083089573B181E090E09C0103
S11303F0062E02C0220F331F0A94E2F7872F90E0E3
S11304008223932302C0959587956A95E2F7FA01B2
S11304108083089573B381E090E09C01062E02C0AE
S1130420220F331F0A94E2F7872F90E0822393234D
S113043002C0959587956A95E2F7FA01808308953D
S113044070B381E090E09C01062E02C0220F331F9E
S11304500A94E2F7872F90E08223932302C09595B4
S113046087956A95E2F7FA01808308950E944A000D
S11104700E945B0080E090E00895F894FFCFB6
S9030000FC
